:100000000C9462000C948A000C948A000C948A0070
:100010000C948A000C948A000C948A000C948A0038
:100020000C948A000C948A000C948A000C9452045C
:100030000C948A000C948A000C948A000C948A0018
:100040000C9408040C948A000C948A000C948A0086
:100050000C948A000C948A000C948A000C948A00F8
:100060000C9413050C948A00000000002400270063
:100070002A0000000000250028002B0000000000DE
:1000800023002600290004040404040404040202DA
:100090000202020203030303030301020408102007
:1000A0004080010204081020010204081020000012
:1000B0000008000201000003040700000000000027
:1000C0000000410611241FBECFEFD8E0DEBFCDBF38
:1000D00022E0A8E8B1E001C01D92AB36B207E1F71B
:1000E00011E0A0E0B1E0E8E8F2E102C005900D9275
:1000F000A838B107D9F710E0C2E6D0E004C02197D4
:10010000FE010E94D408C136D107C9F70E948A06B1
:100110000C9442090C940000CF92DF92EF92FF9270
:10012000DC01A03282E0B8070CF03EC0B7FD06C08B
:10013000A53BB1052CF0A4EBB0E002C0A0E0B0E01C
:1001400080915C0228E830E06901C81AD10887FD77
:10015000D394CC0CDD1CCC0CDD1C0D2C000CEE085B
:10016000FF0880915D0228E532E0281B310987FDF8
:100170003395220F331F220F331FA901330F660B54
:10018000770B9A01AB012C193D094E095F090E94BA
:10019000090924EB30E040E050E00E94DF08C20E85
:1001A000D31EE41EF51ED60190915B029C3098F59B
:1001B00080915C0248E850E0481B510987FD539547
:1001C000440F551F440F551FA417B5078CF080919D
:1001D0005D0228E532E0281B310987FD3395220FA7
:1001E000331F220F331FAD012A173B070CF4A9015F
:1001F00042505109440F551F2FB7F894892F90E0B2
:10020000FC01EE0FFF1F8E0F9F1FFC01EA5CFD4FEC
:10021000528341832FBFFF90EF90DF90CF900895DE
:10022000CF92DF92EF92FF920F931F93CF93DF93C2
:100230006C017A018B01C0E0D0E0CE15DF0589F0BA
:10024000D8016D918D01D601ED91FC910190F08165
:10025000E02DC6010995892B11F47E0102C021967B
:10026000ECCFC701DF91CF911F910F91FF90EF90DD
:10027000DF90CF900895833081F028F4813099F099
:100280008230A1F008958730A9F08830B9F0843029
:10029000D1F4809180008F7D03C0809180008F77A2
:1002A00080938000089584B58F7702C084B58F7DD8
:1002B00084BD08958091B0008F7703C08091B00015
:1002C0008F7D8093B0000895CF93DF93282F30E087
:1002D000F901E255FF4F8491F901E656FF4FD491A1
:1002E000F901EA57FF4FC491CC2391F081110E948C
:1002F0003B01EC2FF0E0EE0FFF1FE458FF4FA591FC
:10030000B491EC91ED2381E090E021F480E002C013
:1003100080E090E0DF91CF9108951F93CF93DF931A
:10032000282F30E0F901E255FF4F8491F901E6569C
:10033000FF4FD491F901EA57FF4FC491CC23C9F084
:10034000162F81110E943B01EC2FF0E0EE0FFF1FF2
:10035000EE58FF4FA591B4918FB7F894111105C0D5
:100360009C91ED2FE095E92302C0EC91ED2BEC93ED
:100370008FBFDF91CF911F910895CF93DF9390E0CE
:10038000FC01E656FF4F2491FC01EA57FF4F849190
:10039000882361F190E0880F991FFC01E859FF4F15
:1003A000C591D491FC01EE58FF4FA591B491611114
:1003B00009C09FB7F8948881209582238883EC91A7
:1003C0002E230BC0623061F49FB7F8943881822FDE
:1003D000809583238883EC912E2B2C939FBF06C09E
:1003E0008FB7F894E8812E2B28838FBFDF91CF91B0
:1003F00008953FB7F89480911B0290911C02A09140
:100400001D02B0911E0226B5A89B05C02F3F19F012
:100410000196A11DB11D3FBFBA2FA92F982F882784
:10042000820F911DA11DB11DBC01CD0142E0660FDF
:10043000771F881F991F4A95D1F708958F929F9231
:10044000AF92BF92CF92DF92EF92FF926B017C014D
:100450000E94F9014B015C01C114D104E104F104D3
:10046000F1F00E94F901DC01CB0188199909AA0970
:10047000BB09883E9340A105B10570F321E0C21A83
:10048000D108E108F10888EE880E83E0981EA11CCF
:10049000B11CC114D104E104F10419F7DDCFFF90C0
:1004A000EF90DF90CF90BF90AF909F908F90089586
:1004B00085ED8093BC008091BC0084FDFCCF109240
:1004C000210208954091AA01262F30E0240F311D0A
:1004D00021323105DCF4209121022430C9F4FC01E1
:1004E00080E090E0861758F43091AA012191DC0158
:1004F000A857BE4FA30FB11D2C930196F3CF809147
:10050000AA01680F6093AA0180E0089581E0089530
:1005100082E00895089581E090E0309125022091D5
:100520002402321710F480E090E0919581959109B2
:1005300008958091250290912402891730F48F5FED
:100540008093250280E090E008958FEF9FEF08955B
:100550008091240290E020912502821B9109089548
:10056000CF92DF92EF92FF920F931F93CF93DF937F
:100570007C01262F972F8A018091F301882391F027
:10058000C62FD72F6E01C40ED51ECC15DD0571F018
:100590006991D701ED91FC910190F081E02DC701A7
:1005A0000995F3CF642F822F0E946202C801DF9168
:1005B000CF911F910F91FF90EF90DF90CF90089512
:1005C000CF93DF931F92CDB7DEB769832091F301FC
:1005D0002223D1F020912202203240F021E030E0AD
:1005E000FC013383228380E090E015C080912302D8
:1005F000E82FF0E0EC50FE4F998190838F5F80935D
:1006000023028093220205C061E0CE0101960E9480
:10061000620281E090E00F90DF91CF910895CF9337
:10062000FC01C48121E02093F301C09314021092D5
:100630002302109222028485682B8AE292E00E94B3
:10064000E00280912202813208F046C0909121029E
:100650009111FCCF92E09093210291E090932002BF
:100660009FEF9093F2011092F1018093F001A4EFBB
:10067000B1E020ED31E0F9019E2F921B981718F49C
:100680009D919193F9CF1092CF018091CF01CC0F22
:10069000C82BC093CF0180911F02813061F410926A
:1006A0001F028091CF018093BB008091BC0083FD2D
:1006B000F8CF85EC01C085EE8093BC0080912102CB
:1006C0008230E1F38091F2018F3F31F08091F201AD
:1006D000803211F08091F2011092230210922202D6
:1006E0001092F301CF9108950F931F93CF938C0134
:1006F000C62F0E940F036C2F6460C8010E940F0375
:100700006C2F6B7FC8010E940F0383EC90E0019770
:10071000F1F7CF911F910F910895FF920F931F93BF
:10072000CF93DF931F92CDB7DEB78C01F62E962FB5
:10073000907F692F642BC80149830E94740380E174
:10074000F89EB00111244981642BC8010F90DF91FC
:10075000CF911F910F91FF900C947403CF93DF936F
:10076000CDB7DEB728970FB6F894DEBF0FBECDBF6A
:1007700098E0E6E0F1E0DE01119601900D929A9585
:10078000E1F790916602981710F48FEF890FFE0140
:100790003196E80FF11DE80FF11D6081606840E0BF
:1007A0008EE592E028960FB6F894DEBF0FBECDBF5F
:1007B000DF91CF910C948D0340E061E08EE592E0F3
:1007C0000E948D038BE39FE10197F1F7809167020F
:1007D000882319F080E00C94AE03089541E00E9454
:1007E0008D0381E090E00895009769F0FC0101908D
:1007F0000020E9F73197AF01481B590BBC018EE58A
:1008000092E00C94100180E090E008950E94DA08D4
:100810001F920F920FB60F9211242F933F938F9335
:100820009F93AF93BF938091170290911802A0916C
:100830001902B0911A023091160223E0230F2D37CE
:1008400020F40196A11DB11D05C026E8230F0296D4
:10085000A11DB11D209316028093170290931802D8
:10086000A0931902B0931A0280911B0290911C026E
:10087000A0911D02B0911E020196A11DB11D809391
:100880001B0290931C02A0931D02B0931E02BF9105
:10089000AF919F918F913F912F910F900FBE0F902D
:1008A0001F9018951F920F920FB60F9211242F933D
:1008B0003F934F935F936F937F938F939F93AF93E8
:1008C000BF93EF93FF938091150287FF05C01092AD
:1008D0008500109284001BC020911502022E000C8E
:1008E000330B80915A0290E02817390784F48091E5
:1008F0001502082E000C990BFC01EE0FFF1F8E0F46
:100900009F1FFC01EA5CFD4F808186FD15C0809130
:1009100015028F5F8093150220911502022E000CA4
:10092000330B80915A0290E028173907C4F4809164
:1009300015028C3064F113C080911502082E000C52
:10094000990BFC01EE0FFF1F8E0F9F1FFC01EA5C4D
:10095000FD4F808160E08F730E948D01D8CF809120
:10096000840090918500049680349C4918F480E4BA
:100970009CE905C080918400909185000496909335
:100980008900809388008FEF809315023BC02091EF
:1009900084003091850080911502082E000C990B7F
:1009A000FC01EE0FFF1F8E0F9F1FFC01EA5CFD4F45
:1009B00081819281820F931F909389008093880098
:1009C00080911502082E000C990BFC01EE0FFF1F01
:1009D0008E0F9F1FFC01EA5CFD4F808186FF12C0D5
:1009E00080911502082E000C990BFC01EE0FFF1FE1
:1009F0008E0F9F1FFC01EA5CFD4F808161E08F73C9
:100A00000E948D01FF91EF91BF91AF919F918F91C6
:100A10007F916F915F914F913F912F910F900FBEFA
:100A20000F901F9018951F920F920FB60F921124DE
:100A30002F933F934F935F936F937F938F939F93E6
:100A4000AF93BF93EF93FF938091B900887F803677
:100A500009F49CC068F5883209F45BC090F48031D9
:100A600009F454C038F4882309F4F6C0883009F436
:100A70004DC0F6C0883109F44CC0803209F45DC025
:100A8000EFC0803409F468C048F4803309F455C0DD
:100A9000883309F0E5C08093F201D8C0803509F4AD
:100AA0004FC0883509F45DC0883409F0D9C0D6C07C
:100AB000883909F4C7C0A8F4883709F467C038F446
:100AC000883609F463C0803709F460C0C9C088382B
:100AD00009F4B8C0803909F45FC0803809F0C0C09B
:100AE0005BC0803B09F486C038F4803A09F466C0E4
:100AF000883A09F47FC0B4C0803C09F4A7C0883CA0
:100B000009F4A4C0883B09F48AC0AAC08091CF012F
:100B100010C09091F1018091F001981770F5E0916B
:100B2000F10181E08E0F8093F101F0E0E053FE4F80
:100B300080818093BB0085EC86C08093F2018EC0DB
:100B4000E091F10181E08E0F8093F1018091BB0073
:100B5000F0E0E053FE4F80839091F1018091F0012D
:100B60006EC0E091F10181E08E0F8093F1018091E0
:100B7000BB00F0E0E053FE4F8083809120028111A2
:100B80006DC081E080931F0284EA61C083E080939E
:100B900021021092CE01CFCF8091CE01803208F099
:100BA00051C0E091CE0181E08E0F8093CE01809103
:100BB000BB00F0E0E255FE4F8083BDCF85EC809313
:100BC000BC00109221028091CE01803230F4E0917D
:100BD000CE01F0E0E255FE4F10826091CE0170E050
:100BE000E091AC01F091AD018EEA91E0099510928F
:100BF000CE0136C084E0809321021092AB011092A6
:100C0000AA01E091A801F091A90109958091AA019A
:100C1000811105C081E08093AA0110928801E091C2
:100C2000AB0181E08E0F8093AB01F0E0E857FE4FFF
:100C300080818093BB009091AB018091AA019817AD
:100C400008F479CF85E88093BC000AC085EC8093D6
:100C5000BC001092210204C01092F2010E945802BE
:100C6000FF91EF91BF91AF919F918F917F916F9184
:100C70005F914F913F912F910F900FBE0F901F905A
:100C8000189510922D0210922C0288EE93E0A0E0AD
:100C9000B0E080932E0290932F02A0933002B09385
:100CA000310282E191E090932B0280932A0210920C
:100CB00061021092600282E291E090935F02809361
:100CC0005E021092670287E28093620280E1809365
:100CD000680282E08093690210926A0280915A024F
:100CE0008C30A0F491E0980F90935A0280935B02AD
:100CF00090E0FC01EE0FFF1F8E0F9F1FFC01EA5CCE
:100D0000FD4F88EB9BE09283818308958FEF809362
:100D10005B020895CF93DF93CDB7DEB7A1970FB6EF
:100D2000F894DEBF0FBECDBF789484B5826084BDD9
:100D300084B5816084BD85B5826085BD85B58160DF
:100D400085BD80916E00816080936E00109281005D
:100D50008091810082608093810080918100816018
:100D600080938100809180008160809380008091D9
:100D7000B10084608093B1008091B0008160809365
:100D8000B00080917A00846080937A0080917A002C
:100D9000826080937A0080917A00816080937A00EB
:100DA00080917A00806880937A001092C10010923E
:100DB0002502109224021092230210922202109215
:100DC000210281E08093200210921F0261E082E103
:100DD0000E948D0161E083E10E948D018091B90044
:100DE0008E7F8093B9008091B9008D7F8093B90088
:100DF00088E48093B80085E48093BC00109263027D
:100E000080916902823018F098E090936302809399
:100E1000660262E370E080E090E00E941E02609152
:100E20006A028EE592E00E940F0368EE73E080E0B4
:100E300090E00E941E0260E38EE592E00E9474033F
:100E40000BE416E4C8010197F1F760E38EE592E048
:100E50000E947403C8010197F1F760E38EE592E008
:100E60000E94740383E592E00197F1F760E28EE55A
:100E700092E00E94740360916302606240E08EE53C
:100E800092E00E948D0384E08093640240E06CE075
:100E90008EE592E00E948D030E94DC0382E0809345
:100EA000650240E066E08EE592E00E948D0340E03E
:100EB00062E08EE592E00E948D038BE39FE1019753
:100EC000F1F788E080936A0260E08EE592E00E948C
:100ED0000F0360E082E00E94BD0160E084E00E94B8
:100EE000BD0180915B028C3008F051C061E083E06D
:100EF0000E94BD0180915B02E82FF0E09F01220F6C
:100F0000331FE20FF31FEA5CFD4F9081907C9360EA
:100F1000908310925C0210925D026CE00E94C808FF
:100F20009CE0899FB001112440E050E09A01260F17
:100F3000371FF901EE0FFF1F2E0F3F1FF901EA5C6B
:100F4000FD4F908196FD16C04F5F5F4F4C305105AD
:100F500069F781110FC01092800082E080938100B8
:100F60001092850010928400B19A80916F00826087
:100F700080936F00E0915B02F0E0CF01880F991F32
:100F8000E80FF91FEA5CFD4F80818064808384E66E
:100F900090E00E948C0080E00E94AE0386E291E027
:100FA0000E94F40381E00E94AE0387E391E00E9477
:100FB000F40360ED77E080E090E00E941E020E9462
:100FC000DC038AE0482E512C612C712C90E0A92E74
:100FD00090E0B92E01E010E082E00E946401892BCC
:100FE00019F58091280290912902892BE9F4E0906B
:100FF0000001F09001011E141F040CF0B2C0109308
:101000002902009328028091260290912702892BC1
:1010100059F480E090E00E948C00E1E0EE1AF108C3
:10102000F0920101E092000184E00E946401892BAA
:10103000E9F48091260290912702892BB9F410934C
:101040002702009326028091280290912902892B81
:1010500069F480E090E00E948C0080910001909102
:101060000101019690930101809300018091280273
:10107000909129020197C1F4809126029091270254
:10108000019791F468EE73E080E090E00E941E0208
:1010900084E690E00E948C001092290210922802AF
:1010A000109227021092260280E00E94AE038AE688
:1010B00091E00E94F40381E00E94AE038BE791E08F
:1010C0000E94F403C0900001D09001010D2C000C8F
:1010D000EE08FF08F7FE26C0E0915E02F0915F0285
:1010E0000190F081E02D6DE28EE592E009952227D6
:1010F0003327A9012C193D094E095F0919A2CE0118
:1011000081967C01CA01B901A30192010E941109D3
:10111000605DF70162937F0121153105410551059D
:1011200089F715C0A701960119A2CE0181967C010D
:10113000CA01B901A30192010E941109605DF70182
:1011400062937F01211531054105510589F7C701DA
:101150000E94F403A114B10409F43ECF0E940000E0
:101160003BCF80E00E94AE0388E491E00E94F4034C
:1011700081E00E94AE0389E591E00E94F40368EBF0
:101180007BE080E090E00E941E020E94DC034CCFD6
:10119000991B79E004C0991F961708F0961B881FC9
:1011A0007A95C9F780950895EE0FFF1F0590F49189
:1011B000E02D099481E090E0F8940C944209052E0A
:1011C00097FB1EF400940E94F60857FD07D00E947A
:1011D000110907FC03D04EF40C94F6085095409585
:1011E000309521953F4F4F4F5F4F089590958095D3
:1011F000709561957F4F8F4F9F4F08950E943309DF
:10120000A59F900DB49F900DA49F800D911D11245A
:101210000895B7FF0C94FE080E94FE08821B930BF2
:101220000895A1E21A2EAA1BBB1BFD010DC0AA1F27
:10123000BB1FEE1FFF1FA217B307E407F50720F03F
:10124000A21BB30BE40BF50B661F771F881F991FBA
:101250001A9469F760957095809590959B01AC0103
:10126000BD01CF010895A29FB001B39FC001A39F0C
:10127000700D811D1124911DB29F700D811D1124CF
:08128000911D0895F894FFCFC1
:1012880003000100000000004000140054000000AA
:101298000000E002B002A80299028B028A02000054
:1012A8000000EE031001202020202041524455491F
:1012B8004E4F2020202000205041524B494E4720BD
:1012C80053595354454D200020202020534F52524B
:1012D80059203A28202020200020205061726B6974
:1012E8006E672046756C6C20200020202020574512
:1012F8004C434F4D45212020202000536C6F742013
:081308004C6566743A200000F8
:00000001FF
