:100000000C9462000C948A000C948A000C948A0070
:100010000C948A000C948A000C948A000C948A0038
:100020000C948A000C948A000C948A000C94EC06C0
:100030000C948A000C948A000C948A000C948A0018
:100040000C9474050C948A000C9442050C941C05C5
:100050000C948A000C948A000C948A000C948A00F8
:100060000C94BE050C948A000000000024002700B8
:100070002A0000000000250028002B0000000000DE
:1000800023002600290004040404040404040202DA
:100090000202020203030303030301020408102007
:1000A0004080010204081020010204081020000012
:1000B0000008000201000003040700000000000027
:1000C0000000AD0711241FBECFEFD8E0DEBFCDBFCB
:1000D00023E0ACEEB1E001C01D92A737B207E1F713
:1000E00011E0A0E0B1E0EAE2F7E102C005900D9274
:1000F000AC3EB107D9F710E0C2E6D0E004C02197CA
:10010000FE010E94250BC136D107C9F70E943408B1
:100110000C94930B0C940000CF92DF92EF92FF921D
:10012000DC01A03282E0B8070CF03EC0B7FD06C08B
:10013000A53BB1052CF0A4EBB0E002C0A0E0B0E01C
:100140008091680328E830E06901C81AD10887FD6A
:10015000D394CC0CDD1CCC0CDD1C0D2C000CEE085B
:10016000FF088091690328E532E0281B310987FDEB
:100170003395220F331F220F331FA901330F660B54
:10018000770B9A01AB012C193D094E095F090E94BA
:100190005A0B24EB30E040E050E00E94300BC20EDE
:1001A000D31EE41EF51ED601909167039C3098F58E
:1001B0008091680348E850E0481B510987FD53953A
:1001C000440F551F440F551FA417B5078CF080919D
:1001D000690328E532E0281B310987FD3395220F9A
:1001E000331F220F331FAD012A173B070CF4A9015F
:1001F00042505109440F551F2FB7F894892F90E0B2
:10020000FC01EE0FFF1F8E0F9F1FFC01EE5BFC4FEA
:10021000528341832FBFFF90EF90DF90CF900895DE
:10022000CF92DF92EF92FF920F931F93CF93DF93C2
:100230006C017A018B01C0E0D0E0CE15DF0589F0BA
:10024000D8016D918D01D601ED91FC910190F08165
:10025000E02DC6010995892B11F47E0102C021967B
:10026000ECCFC701DF91CF911F910F91FF90EF90DD
:10027000DF90CF900895FC01918D828D981761F0E9
:10028000828DDF01A80FB11D5D968C91928D9F5FCD
:100290009F73928F90E008958FEF9FEF0895FC0178
:1002A000918D828D981731F0828DE80FF11D858D2B
:1002B00090E008958FEF9FEF0895FC01918D228DBE
:1002C000892F90E0805C9F4F821B91098F73992743
:1002D000089589E992E00E945D0121E0892B09F4EB
:1002E00020E0822F0895FC01848DDF01A80FB11D4D
:1002F000A35ABF4F2C91848D90E001968F7399275C
:10030000848FA689B7892C93A089B1898C91806448
:100310008C93938D848D981306C00288F389E02D09
:1003200080818F7D80830895EF92FF920F931F93BA
:10033000CF93DF93EC0181E0888F9B8D8C8D981398
:1003400005C0E889F989808185FD24C0F62E0B8DD2
:1003500010E00F5F1F4F0F731127E02E8C8DE812F6
:100360000CC00FB607FCFACFE889F989808185FFB8
:10037000F5CFCE010E947301F1CF8B8DFE01E80F06
:10038000F11DE35AFF4FF0820B8FEA89FB898081D0
:10039000806207C0EE89FF896083E889F9898081DE
:1003A0008064808381E090E0DF91CF911F910F9175
:1003B000FF90EF900895CF93DF93EC01888D882311
:1003C000C9F0EA89FB89808185FD05C0A889B989C2
:1003D0008C9186FD0FC00FB607FCF5CF808185FF9D
:1003E000F2CFA889B9898C9185FFEDCFCE010E940B
:1003F0007301E7CFDF91CF91089580E090E0892BE2
:1004000029F00E94690181110C9400000895833045
:1004100081F028F4813099F08230A1F0089587307E
:10042000A9F08830B9F08430D1F4809180008F7DBC
:1004300003C0809180008F7780938000089584B5F9
:100440008F7702C084B58F7D84BD08958091B00000
:100450008F7703C08091B0008F7D8093B0000895A6
:10046000CF93DF93282F30E0F901E255FF4F8491BD
:10047000F901E656FF4FD491F901EA57FF4FC491B5
:10048000CC2391F081110E940702EC2FF0E0EE0FD7
:10049000FF1FE458FF4FA591B491EC91ED2381E04B
:1004A00090E021F480E002C080E090E0DF91CF9105
:1004B00008951F93CF93DF93282F30E0F901E25581
:1004C000FF4F8491F901E656FF4FD491F901EA57A5
:1004D000FF4FC491CC23C9F0162F81110E9407024F
:1004E000EC2FF0E0EE0FFF1FEE58FF4FA591B491F7
:1004F0008FB7F894111105C09C91ED2FE095E92379
:1005000002C0EC91ED2BEC938FBFDF91CF911F9147
:100510000895CF93DF9390E0FC01E656FF4F2491BE
:10052000FC01EA57FF4F8491882361F190E0880F26
:10053000991FFC01E859FF4FC591D491FC01EE5879
:10054000FF4FA591B491611109C09FB7F8948881BC
:10055000209582238883EC912E230BC0623061F4B6
:100560009FB7F8943881822F809583238883EC91FC
:100570002E2B2C939FBF06C08FB7F894E8812E2BAB
:1005800028838FBFDF91CF9108953FB7F894809172
:10059000850290918602A0918702B091880226B5CB
:1005A000A89B05C02F3F19F00196A11DB11D3FBFAB
:1005B000BA2FA92F982F8827820F911DA11DB11D39
:1005C000BC01CD0142E0660F771F881F991F4A9535
:1005D000D1F708958F929F92AF92BF92CF92DF9200
:1005E000EF92FF926B017C010E94C5024B015C01FE
:1005F000C114D104E104F104F1F00E94C502DC0150
:10060000CB0188199909AA09BB09883E9340A10525
:10061000B10570F321E0C21AD108E108F10888EEB3
:10062000880E83E0981EA11CB11CC114D104E10402
:10063000F10419F7DDCFFF90EF90DF90CF90BF90DE
:10064000AF909F908F90089585ED8093BC0080912E
:10065000BC0084FDFCCF10925B0208954091100213
:10066000262F30E0240F311D21323105DCF420919A
:100670005B022430C9F4FC0180E090E0861758F456
:10068000309110022191DC01A251BE4FA30FB11D88
:100690002C930196F3CF80911002680F60931002A3
:1006A00080E0089581E0089582E0089508958FEF35
:1006B0009FEF08958FEF9FEF08958091ED0190E0F7
:1006C0009195819591090895CF92DF92EF92FF92D3
:1006D0000F931F93CF93DF937C01262F972F8A01CF
:1006E00080915C02882391F0C62FD72F6E01C40E33
:1006F000D51ECC15DD0571F06991D701ED91FC9106
:100700000190F081E02DC7010995F3CF642F822F6E
:100710000E942E03C801DF91CF911F910F91FF908E
:10072000EF90DF90CF900895CF93DF931F92CDB7D6
:10073000DEB7698320915C022223D1F020917F02F1
:10074000203240F021E030E0FC013383228380E05E
:1007500090E015C080915D02E82FF0E0E25AFD4F75
:10076000998190838F5F80935D0280937F0205C0A3
:1007700061E0CE0101960E942E0381E090E00F908F
:10078000DF91CF910895CF93FC01C48121E02093A4
:100790005C02C0937E0210925D0210927F028485FB
:1007A000682B86E393E00E94940380917F0281325C
:1007B00008F046C090915B029111FCCF92E09093BB
:1007C0005B0291E090935A029FEF9093590210922E
:1007D000580280935702AEE5B2E027E332E0F90118
:1007E0009E2F921B981718F49D919193F9CF109218
:1007F000360280913602CC0FC82BC093360280910E
:100800003502813061F41092350280913602809376
:10081000BB008091BC0083FDF8CF85EC01C085EE64
:100820008093BC0080915B028230E1F38091590299
:100830008F3F31F080915902803211F0809159023E
:1008400010925D0210927F0210925C02CF91089587
:100850000F931F93CF938C01C62F0E94C3036C2F5D
:100860006460C8010E94C3036C2F6B7FC8010E94A3
:10087000C30383EC90E00197F1F7CF911F910F91A3
:100880000895FF920F931F93CF93DF931F92CDB7DD
:10089000DEB78C01F62E962F907F692F642BC8014E
:1008A00049830E94280480E1F89EB0011124498107
:1008B000642BC8010F90DF91CF911F910F91FF9092
:1008C0000C942804CF93DF93CDB7DEB728970FB6EB
:1008D000F894DEBF0FBECDBF28E0E6E0F1E0DE0118
:1008E000119601900D922A95E1F720917203261737
:1008F00010F46FEF620FFE013196E60FF11DE60F67
:10090000F11D9081682F690F606840E08AE693E0EE
:1009100028960FB6F894DEBF0FBECDBFDF91CF9102
:100920000C94410440E061E08AE693E00E944104B7
:100930008BE39FE10197F1F780917303882321F006
:1009400060E080E00C946204089541E00E9441045C
:1009500081E090E008951092980210929702109210
:1009600096021092950210929402109293021092A5
:100970009202109291021092900210928F021092A5
:100980008E0210928D0285E00E943002892B31F494
:1009900081E090E0909398028093970286E00E9415
:1009A0003002892B31F481E090E09093960280939D
:1009B000950287E00E943002892B31F481E090E0BB
:1009C000909394028093930288E00E943002892BD6
:1009D00031F481E090E0909392028093910289E05B
:1009E0000E943002892B31F481E090E090939002D4
:1009F00080938F028AE00E943002892B31F481E0DB
:100A000090E090938E0280938D020895009769F094
:100A1000FC0101900020E9F73197AF01481B590B09
:100A2000BC018AE693E00C94100180E090E0089508
:100A30000C9406050E942B0B1F920F920FB60F927B
:100A400011242F933F934F935F936F937F938F93D3
:100A50009F93AF93BF93EF93FF9389E992E00E9436
:100A60007301FF91EF91BF91AF919F918F917F9112
:100A70006F915F914F913F912F910F900FBE0F900B
:100A80001F9018951F920F920FB60F9211242F935B
:100A90008F939F93EF93FF93E091A902F091AA02A5
:100AA0008081E091AF02F091B00282FD12C090818E
:100AB0008091B2028F5F8F732091B302821751F041
:100AC000E091B202F0E0E756FD4F958F8093B202BD
:100AD00001C08081FF91EF919F918F912F910F9095
:100AE0000FBE0F901F9018951F920F920FB60F9286
:100AF00011242F933F938F939F93AF93BF93809134
:100B0000810290918202A0918302B091840230917F
:100B1000800223E0230F2D3720F40196A11DB11D83
:100B200005C026E8230F0296A11DB11D2093800267
:100B30008093810290938202A0938302B0938402F7
:100B40008091850290918602A0918702B0918802DF
:100B50000196A11DB11D8093850290938602A093FA
:100B60008702B0938802BF91AF919F918F913F917F
:100B70002F910F900FBE0F901F9018951F920F92FC
:100B80000FB60F9211242F933F934F935F936F9360
:100B90007F938F939F93AF93BF93EF93FF93809136
:100BA000B900887F803609F49CC068F5883209F462
:100BB0005BC090F4803109F454C038F4882309F400
:100BC000F6C0883009F44DC0F6C0883109F44CC035
:100BD000803209F45DC0EFC0803409F468C048F485
:100BE000803309F455C0883309F0E5C08093590279
:100BF000D8C0803509F44FC0883509F45DC0883409
:100C000009F0D9C0D6C0883909F4C7C0A8F488371C
:100C100009F467C038F4883609F463C0803709F4F2
:100C200060C0C9C0883809F4B8C0803909F45FC011
:100C3000803809F0C0C05BC0803B09F486C038F43E
:100C4000803A09F466C0883A09F47FC0B4C0803C99
:100C500009F4A7C0883C09F4A4C0883B09F48AC001
:100C6000AAC08091360210C090915802809157021C
:100C7000981770F5E091580281E08E0F809358022A
:100C8000F0E0E95CFD4F80818093BB0085EC86C07D
:100C9000809359028EC0E091580281E08E0F8093BC
:100CA00058028091BB00F0E0E95CFD4F8083909199
:100CB0005802809157026EC0E091580281E08E0F79
:100CC000809358028091BB00F0E0E95CFD4F808387
:100CD00080915A0281116DC081E08093350284EACF
:100CE00061C083E080935B0210923402CFCF809189
:100CF0003402803208F051C0E091340281E08E0F5E
:100D0000809334028091BB00F0E0EC5EFD4F808365
:100D1000BDCF85EC8093BC0010925B0280913402C1
:100D2000803230F4E0913402F0E0EC5EFD4F10824E
:100D30006091340270E0E0911202F091130284E1BC
:100D400092E009951092340236C084E080935B02F1
:100D50001092110210921002E0910E02F0910F0217
:100D6000099580911002811105C081E080931002E5
:100D70001092EE01E091110281E08E0F809311023A
:100D8000F0E0E251FE4F80818093BB009091110210
:100D900080911002981708F479CF85E88093BC0001
:100DA0000AC085EC8093BC0010925B0204C01092D4
:100DB00059020E942403FF91EF91BF91AF919F913F
:100DC0008F917F916F915F914F913F912F910F90F4
:100DD0000FBE0F901F9018951F920F920FB60F9293
:100DE00011242F933F934F935F936F937F938F9330
:100DF0009F93AF93BF93EF93FF938091EC0187FF95
:100E000005C010928500109284001BC02091EC0157
:100E1000022E000C330B8091660390E028173907EF
:100E200084F48091EC01082E000C990BFC01EE0F6C
:100E3000FF1F8E0F9F1FFC01EE5BFC4F808186FD24
:100E400015C08091EC018F5F8093EC012091EC0143
:100E5000022E000C330B8091660390E028173907AF
:100E6000C4F48091EC018C3064F113C08091EC01EA
:100E7000082E000C990BFC01EE0FFF1F8E0F9F1F19
:100E8000FC01EE5BFC4F808160E08F730E94590291
:100E9000D8CF8091840090918500049680349C493D
:100EA00018F480E49CE905C080918400909185004D
:100EB000049690938900809388008FEF8093EC01D3
:100EC0003BC020918400309185008091EC01082E78
:100ED000000C990BFC01EE0FFF1F8E0F9F1FFC01F2
:100EE000EE5BFC4F81819281820F931F909389006A
:100EF000809388008091EC01082E000C990BFC0176
:100F0000EE0FFF1F8E0F9F1FFC01EE5BFC4F8081D9
:100F100086FF12C08091EC01082E000C990BFC0199
:100F2000EE0FFF1F8E0F9F1FFC01EE5BFC4F8081B9
:100F300061E08F730E945902FF91EF91BF91AF91D1
:100F40009F918F917F916F915F914F913F912F91E1
:100F50000F900FBE0F901F90189510929C02109248
:100F60009B0288EE93E0A0E0B0E080939D02909316
:100F70009E02A0939F02B093A00222E131E0309341
:100F80009A022093990225EC30E03093A602209338
:100F9000A50224EC30E03093A8022093A70220ECB5
:100FA00030E03093AA022093A90221EC30E0309384
:100FB000AC022093AB0222EC30E03093AE022093DF
:100FC000AD0226EC30E03093B0022093AF021092D5
:100FD000B2021092B3021092B4021092B5021092B3
:100FE00039031092380380933A0390933B03A09304
:100FF0003C03B0933D0382E291E0909337038093EA
:10100000360310926D0310926C0382E391E090938B
:101010006B0380936A031092730387E280936E03DD
:1010200084E18093740384E08093750310927603C7
:10103000809166038C30A0F491E0980F9093660342
:101040008093670390E0FC01EE0FFF1F8E0F9F1F40
:10105000FC01EE5BFC4F88EB9BE09283818308955B
:101060008FEF809367030895CF93DF93CDB7DEB7FB
:10107000A1970FB6F894DEBF0FBECDBF789484B5AC
:10108000826084BD84B5816084BD85B5826085BD84
:1010900085B5816085BD80916E00816080936E0012
:1010A0001092810080918100826080938100809104
:1010B00081008160809381008091800081608093B5
:1010C00080008091B10084608093B1008091B00075
:1010D00081608093B00080917A00846080937A0070
:1010E00080917A00826080937A0080917A0081609A
:1010F00080937A0080917A00806880937A001092C1
:10110000C100E091A902F091AA0282E08083E091FF
:10111000A502F091A6021082E091A702F091A80228
:101120008FEC80831092B102E091AD02F091AE029B
:1011300086E08083E091AB02F091AC028081806117
:101140008083E091AB02F091AC0280818860808363
:10115000E091AB02F091AC02808180688083E091E5
:10116000AB02F091AC0280818F7D808360E085E0EE
:101170000E94890260E086E00E94890260E087E0C8
:101180000E94890260E088E00E94890260E089E0B4
:101190000E94890260E08AE00E94890260E082E0A9
:1011A0000E94890260E084E00E94890280916703C6
:1011B0008C3008F051C061E083E00E948902809188
:1011C0006703E82FF0E09F01220F331FE20FF31FA8
:1011D000EE5BFC4F9081907C93609083109268034B
:1011E000109269036CE00E94190B9CE0899FB0018A
:1011F000112440E050E09A01260F371FF901EE0F4D
:10120000FF1F2E0F3F1FF901EE5BFC4F908196FDF3
:1012100016C04F5F5F4F4C30510569F781110FC009
:101220001092800082E080938100109285001092DD
:101230008400B19A80916F00826080936F00E0918A
:101240006703F0E0CF01880F991FE80FF91FEE5BED
:10125000FC4F8081806480838AE590E00E948C004E
:1012600080916F03886080936F0384E0F82EF09282
:10127000720362E370E080E090E00E94EA02609115
:1012800076038AE693E00E94C30368EE73E080E091
:1012900090E00E94EA0260E38AE693E00E9428045C
:1012A0000BE416E4C8010197F1F760E38AE693E0E6
:1012B0000E942804C8010197F1F760E38AE693E0F1
:1012C0000E94280483E592E00197F1F760E28AE644
:1012D00093E00E94280460916F03606240E08AE618
:1012E00093E00E944104F092700340E06CE08AE6D3
:1012F00093E00E9441040E94920482E08093710373
:1013000040E066E08AE693E00E94410440E062E04B
:101310008AE693E00E9441048BE39FE10197F1F795
:1013200061E080E00E94620486E391E00E9418057B
:1013300062E080E00E94620489E491E00E94180566
:1013400060ED77E080E090E00E94EA020E94920463
:101350000E94AB04209197023091980280919502EF
:1013600090919602280F391F8091930290919402D8
:10137000280F391F8091910290919202280F391FF6
:1013800080918F0290919002280F391F80918D02D9
:1013900090918E02280F391F8091000190910101D8
:1013A000821B930B90930101809300019AE0892E98
:1013B000912CA12CB12C01E010E00E94AB0460E064
:1013C00080E00E9462048CE591E00E941805C090C4
:1013D0000001D09001010D2C000CEE08FF08F7FE73
:1013E00026C0E0916A03F0916B030190F081E02D3B
:1013F0006DE28AE693E0099522273327A9012C198B
:101400003D094E095F0919A2FE01B1967F01CA018B
:10141000B901A50194010E94620B605DF70162931E
:101420007F01211531054105510589F715C0A70137
:10143000960119A2CE0181967C01CA01B901A501CC
:1014400094010E94620B605DF70162937F01211598
:1014500031054105510589F7C7010E94060587E559
:1014600091E00E94180561E080E00E946204809192
:10147000970290919802019719F48BE691E002C0CF
:1014800084E791E00E94180561E08AE00E9462040E
:101490008091950290919602019719F48DE791E061
:1014A00002C086E891E00E94180562E080E00E9498
:1014B00062048091930290919402019719F48FE84D
:1014C00091E002C088E991E00E94180562E08AE09C
:1014D0000E9462048091910290919202019719F406
:1014E00081EA91E002C08AEA91E00E94180563E077
:1014F00080E00E94620480918F0290919002019797
:1015000019F483EB91E002C08CEB91E00E94180586
:1015100063E08AE00E94620480918D0290918E02C5
:10152000019719F485EC91E002C08EEC91E00E94E5
:10153000180582E00E943002892B19F580918B02F8
:1015400090918C02892BE9F4E0900001F090010168
:101550001E141F040CF05EC010938C0200938B02CB
:101560008091890290918A02892B59F484EB90E052
:101570000E948C00F1E0EF1AF108F0920101E09274
:10158000000184E00E943002892BE9F480918902F5
:1015900090918A02892BB9F410938A0200938902F0
:1015A00080918B0290918C02892B69F484EB90E0FE
:1015B0000E948C008091000190910101019690930E
:1015C00001018093000180918B0290918C02019720
:1015D000C1F48091890290918A02019791F468EE9A
:1015E00073E080E090E00E94EA028AE590E00E94C9
:1015F0008C0010928C0210928B0210928A02109230
:10160000890261E070E080E090E00E94EA020E94BE
:10161000FD01D3CE60E080E00E94620487ED91E09E
:101620000E9418056CED75E080E090E00E94EA02EF
:10163000A8CF991B79E004C0991F961708F0961B54
:10164000881F7A95C9F780950895EE0FFF1F0590C2
:10165000F491E02D099481E090E0F8940C94930BC0
:10166000052E97FB1EF400940E94470B57FD07D0F0
:101670000E94620B07FC03D04EF40C94470B50956C
:101680004095309521953F4F4F4F5F4F089590956E
:101690008095709561957F4F8F4F9F4F08950E9461
:1016A000840BA59F900DB49F900DA49F800D911D5C
:1016B00011240895B7FF0C944F0B0E944F0B821B0F
:1016C000930B0895A1E21A2EAA1BBB1BFD010DC0AE
:1016D000AA1FBB1FEE1FFF1FA217B307E407F507E2
:1016E00020F0A21BB30BE40BF50B661F771F881FBE
:1016F000991F1A9469F760957095809590959B0154
:10170000AC01BD01CF010895A29FB001B39FC001FC
:10171000A39F700D811D1124911DB29F700D811D1D
:0A1720001124911D0895F894FFCFE5
:10172A000600010000000000400014005400000000
:10173A000000940110015D013B014F01DB01000033
:10174A000000940364035D035A0357035603000021
:10175A000000A5041001202020204361722020707F
:10176A0061726B696E6720200020202020202020D3
:10177A0053797374656D2020202020002020204892
:10178A0061766520536C6F743A200053313A46698A
:10179A006C6C200053313A456D7074790053323ABB
:1017AA0046696C6C200053323A456D707479005367
:1017BA00333A46696C6C200053333A456D7074793C
:1017CA000053343A46696C6C200053343A456D70C4
:1017DA0074790053353A46696C6C200053353A45A2
:1017EA006D7074790053363A46696C6C2000533632
:1017FA003A456D7074790020536F72727920506186
:0C180A00726B696E672046756C6C2000E4
:00000001FF
